:020000040800F2
:1000000000000820D5030008DD030008B502000841
:10001000B9020008BD020008C1020008000000008B
:1000200000000000000000000000000011030008B4
:10003000E903000800000000A9030008B903000854
:10004000EF030008EF030008EF030008EF030008C8
:10005000EF030008EF030008EF030008EF030008B8
:10006000EF030008EF030008EF030008EF030008A8
:10007000EF030008EF030008EF030008EF03000898
:10008000EF030008EF030008EF030008991B0008C6
:10009000691B0008EF030008811B0008EF0300083C
:1000A000EF030008EF030008EF030008EF03000868
:1000B000EF030008EF030008EF030008EF03000858
:1000C000EF030008EF030008EF030008EF03000848
:1000D000EF030008EF030008EF030008EF03000838
:1000E000EF030008EF030008EF030008EF03000828
:1000F000EF030008EF030008EF030008EF03000818
:10010000EF030008EF030008EF030008EF03000807
:10011000EF030008EF030008EF030008EF030008F7
:10012000EF030008EF030008EF030008EF030008E7
:10013000EF030008A11C0008EF030008E11B000802
:10014000B11B0008EF030008C91B0008EF030008FB
:10015000EF030008EF030008EF030008EF030008B7
:10016000EF030008EF030008EF030008EF030008A7
:10017000EF030008EF030008EF0300080000000091
:10018000EF030008EF030008EF030008EF03000887
:10019000EF030008EF030008EF030008EF03000877
:1001A000EF030008EF030008EF030008EF03000867
:1001B000EF030008EF030008EF030008EF03000857
:1001C000EF030008EF03000800000000EF03000841
:1001D000EF030008EF030008EF030008EF03000837
:1001E000291C0008F91B0008EF030008111C000877
:1001F000EF030008EF03000800F002F80CF040F8ED
:100200000AA090E8000C82448344AAF10107DA4571
:1002100001D10CF035F8AFF2090EBAE80F0013F077
:10022000010F18BFFB1A43F0010318471CEF010030
:100230003CEF01000A4410F8014B14F00F0508BF11
:1002400010F8015B240908BF10F8014B6D1E05D0A2
:1002500010F8013B6D1E01F8013BF9D1641E03D07B
:10026000641E01F8015BFBD19142E4D370470000AA
:100270000023002400250026103A28BF78C1FBD8AF
:10028000520728BF30C148BF0B6070471FB51DF033
:100290003BFA9DE8030000F0BCFF00F09DFF040066
:1002A000002000211DF01AFA401C606001F0DEF908
:1002B0001FBD0000102304E0202302E0302300E0F3
:1002C00040239C46F0B404AE7546E80801D3EFF332
:1002D00009860E4F0FCE0FC70FBC0FC740464946C9
:1002E00052465B460FC71DCE3100A60A00D304312B
:1002F0006E0900D248311FC7EFF309806946EFF35A
:10030000148663C76046014912F002FCF801002020
:100310001EF0040F0CBFEFF30880EFF30980816932
:1003200011F8021C91BB01B590E80F10E047BDE841
:1003300000508CE80300244B93E80600914208BF6C
:10034000704741B91EF0100F10D12049086820F005
:10035000010008600AE02CE9F00F1EF0100F08BF42
:100360002CED108AC1F838C081F822E01A6092F8AA
:100370002210906B61F0FF0E1EF0100F08BFB0EC62
:10038000108AB0E8F00F80F309887047104A1368AC
:100390009942FAD801B552F821C00FC8E047BDE82C
:1003A0000050CCF80000704701B515F01DFBBDE80A
:1003B0000140EFF3098CBEE701B515F0EDFDBDE896
:1003C0000140EFF3098CB6E7D403002034EF00E0DE
:1003D000BCE801080648804706480047FEE7FEE7FC
:1003E000FEE7FEE7FEE7FEE7FEE7FEE7FEE7FEE7E5
:1003F00099440008F90100087047000010B500F0AA
:10040000EBFE001D10BD00BFD5D201000BF060BF98
:100410000844401E491E884370470821001DF7E725
:100420002DE9F04117460E460446FFF7F6FFA042BD
:10043000054633D9002F1CBF06F10C000BF0CCFF92
:1004400030467468F4B12168A94217D305F1080257
:1004500091423CBF6168416007D3626861194A609C
:100460002268521B0A6041602560002F1CBF06F104
:100470000C000CF031F8201DBDE8F08120466468C6
:10048000002CE0D12946304600F0AFFE0028D7D13D
:10049000002F1CBF06F10C000CF01EF80020BDE878
:1004A000F08110B5044600F092FE01682046BDE8D8
:1004B00010400122B4E770B516460D46041F00280F
:1004C00008BF70BD002E1CBF05F10C000BF084FFAF
:1004D0002B465868002818BFA04238BF0346F8D3FF
:1004E0001968CA18A24218BF5C6003D122681C4672
:1004F0001144196021680A19824218BF606004D152
:1005000042686260006808442060002E1CBF05F14C
:100510000C000BF0E1FF70BD10B5044600F057FE73
:1005200001682046BDE810400122C4E753EA020CEE
:1005300000F069802DE9F04B4FF00006002B1FBF43
:10054000B3FA83F503FA05F424FA05F65E4012BF08
:100550001643B2FA82F502FA05F4C5F120051EBF72
:1005600022FA05FC44EA0C04203556EA044C4FEA12
:10057000144418BF641C4FF000084FF0000990426B
:1005800071EB030C39D3002919BFB1FA81F701FAD5
:1005900007F6B0FA80F700FA07F6C7F120071EBF8A
:1005A00020FA07FC46EA0C062037B6FBF4FCA7EB62
:1005B0000507103F07F01F0BCBF120062CFA06F6BB
:1005C0000CFA0BFB44BFB3460026202FA4BF5E46A7
:1005D0004FF0000B5BEA060C08BF4FF0010B19EB64
:1005E0000B0948EB0608ABFB027C06FB02CC0BFBBD
:1005F00003CCC01B71EB0C01C1E70B460246414620
:100600004846BDE8F08B13B5084318BF4FF0FF30E4
:100610000146AFF30080BDE81C40704753EA020C6E
:1006200023D010B54C1084EA530404D54042C1F1E4
:10063000000138BF491E1B4204D55242C3F10003DA
:1006400038BF5B1EFFF772FF14F0804F04D04042AA
:10065000C1F1000138BF491E14F0004F04D05242CE
:10066000C3F1000338BF5B1E10BD13B540424FF00D
:10067000000070EB0104B8BF012001F00041002828
:100680001CBF6FF000414FF0FF30AFF300801CBD86
:1006900070B5044685690068C10601D5302600E0C2
:1006A0002026C00707D070BDD4E90121304690470D
:1006B000206A401C20626D1EF6D570BD70B50446E0
:1006C00085690078C00707D170BDD4E901212020D9
:1006D0009047206A401C20626D1EF6D570BD2DE942
:1006E000FF5F1D464FF0FF3B91464FF000085F460D
:1006F000D5E90146A96901987F1C8847296A824685
:1007000088470028F6D1BAF1FF3F0CD0002E24F420
:10071000C06419DD600614D5BAF12B0F09D0BAF107
:100720002D0F0ED103E0584604B0BDE8F09F44F40D
:100730008064A96901987F1C8847761E8246002E36
:1007400002DDBAF1300F03D0B9F1000F26D032E04C
:10075000A969761E01987F1C44F400748847002E16
:10076000824605DDBAF1780F06D0BAF1580F03D0F2
:10077000B9F1000F10D01EE0B9F1000F02D0B9F1AD
:10078000100F18D1A969761E01987F1C24F40074FB
:1007900088478246102002E0082000E00A208146B7
:1007A00009E0A96908FB0908761E01987F1C44F43A
:1007B000007488478246002E05DD4946504600F009
:1007C00060FD0028EDDAE96901988847A00502D4A8
:1007D0006FF00100A8E7E00725D1600613D560059A
:1007E00002D5C8F1000000E0404629680A1D2A60D1
:1007F0000968220501D5087015E0220701D5088097
:1008000011E008600FE02868011D296000682105DB
:1008100002D580F8008006E0210702D5A0F800800C
:1008200001E0C0F8008038467EE72DE9FF5F4FF019
:1008300000089946144646469169D2E901A7DDF8B9
:1008400038B001988847054659EA0B0005D009E001
:10085000A1690198761C88470546216A2846884781
:100860000028F5D1681C03D05FEACA7005D015E0F6
:100870004FF0FF3004B0BDE8F09F2068011D2160FB
:10088000D0F800800AE05FEACA7001D108F8015B85
:10089000A169761C01987F1E88470546002F1ADD46
:1008A000681C18D0B9F1000F0DD0E81705EBD06027
:1008B000421120F01F0059F822102A1A01209040FE
:1008C0000142E0D107E0BBF1000FDCD12846216AEC
:1008D00088470028D7D0E16901988847BBF1000F0D
:1008E00007D1002E05DD5FEACA7002D1002188F829
:1008F0000010A068B84203DDBBF1000F03D017B1B0
:100900006FF00100B6E73046B4E770B50646FFF772
:100910007DFD0468054630460A22002100F002F8F9
:100920002C6070BD2DE9F04791460F468046044685
:10093000002614F8015B2DB1FFF760FD0068405DF3
:10094000C007F6D12B2D02D02D2D18D0641E4A469B
:100950003946204600F0A3FC27B13968A14201D1F5
:10096000C7F800804FF0020471050BD54042002803
:1009700003DDFFF74BFD0460A007BDE8F08746F4F8
:100980008066E4E70028F8DAFFF740FD04606FF0C6
:100990000040F2E72DE9F041044616460D4647694E
:1009A000007B80072ED038460BF0D2FE50BB3EB302
:1009B000012E02D0022E25D104E0204600F066F878
:1009C00005441DE038460BF0AFFEE168002841F019
:1009D0001001E16005DA204600F09CFD0120BDE831
:1009E000F081C9030BD56268E16A914200D81146D3
:1009F000A26911442269891A814200DD0846054432
:100A0000002D01DA0220EAE7E16A6068E2688142CB
:100A100006D29103E06203D522F4003141F01002C6
:100A2000A6690027AE4213DCE16A814201D90B4678
:100A300000E0034603EB060C2369ACEB030CAC456A
:100A400006DD814201D98C4600E084469C4505D1F3
:100A5000A760276042F02000A5620DE0AD1BE669AB
:100A6000AE1B8142A66000D90846C01A281A206031
:100A70005819606022F0200003490840E06000201F
:100A800084F84870ABE70000BFCFD7FF10B5014630
:100A9000C268900703D0900607D5886A0AE0FFF77E
:100AA000B5FC01210160881E10BD8B69486818449F
:100AB0000B69C01A91F848301BB191F84910401ADF
:100AC00010BD1103FCD50028FADD401E10BD2DE934
:100AD000F04704464FF000094FF0FF37C568D4E9EE
:100AE0000486A80707D0204600F048FD30460BF0EA
:100AF00013FE002802DA3846BDE8F087280502D543
:100B00004046FFF709FD4C21204600F0C6FA206D53
:100B100020F0010020654846EEE770B50C46064619
:100B200001F14C0528460BF057FC214630461CF0DD
:100B3000C7FD044628460BF0CFFC204670BD0000E0
:100B40002DE9F041044600F14C0738460BF044FC17
:100B5000E068810712D0800601D5A66A04E0A16989
:100B6000606808442169461A204600F007FD00220B
:100B7000054631462046FFF70DFF00E000253846C8
:100B80000BF0AAFC2846BDE8F0812DE9F04118B130
:100B9000BDE8F041FFF7D4BF0B4E002530460BF007
:100BA0001BFC0A4C6F1E07E02046FFF7C9FF00B18F
:100BB0003D46206D20F00104002CF5D130460BF0AD
:100BC0008BFC2846DFE700000403002070040020AF
:100BD0002DE9F04716468846070010D006F14C0074
:100BE00081460BF0F9FB3046FFF771FF18F8010B57
:100BF00061280DD0722805D0772841D105E000206A
:100C0000BDE8F0870125002405E00225042402E068
:100C1000082448F2020518F8010B2B2806D0622898
:100C200009D018F8010C74280AD00BE045F0030530
:100C300044F00204EFE745F0040544F00104EAE75C
:100C400044F01004384621460BF086FD411C17D0B5
:100C50000021316171604FF40071F560F1617061E4
:100C6000200704D5304602220021FFF793FE306DA5
:100C700040F00100306548460BF02EFC3046BFE7DF
:100C80000026F8E72DE9F04115460E460746214CAF
:100C900020460BF0A1FB2A4631463846FFF798FF65
:100CA000054620460BF018FC2846BDE8F0812DE9EA
:100CB000F0410E468046174D28460BF08DFB164C32
:100CC000206DC10704D0410804D020F00104F7E7EB
:100CD000224612E05420FFF7E4FB070017D0206DF6
:100CE00047F00101084354212065384600F0D5F94A
:100CF00007F14C000BF0A0FB3A4631464046FFF7A7
:100D000067FF044628460BF0E7FB2046CDE70024AA
:100D1000F8E70000040300207004002030B503460B
:100D20001D781DB10A4603E0AC4201D1181A30BD4E
:100D300012F8014B002CF7D15B1CF1E730B50346EC
:100D40001D783DB10A4612F8014B1CB1AC42FAD1F4
:100D50005B1CF5E7181A30BD30B505460B462A4630
:100D600013F8014B12F8010B08B1A042F8D01CB1E6
:100D7000002802D06D1CF1E7284630BD40EA01038F
:100D800010B59B070FD1042A0DD310C808C9121F34
:100D90009C42F8D020BA19BA884201D9012010BD6E
:100DA0004FF0FF3010BD1AB1D30703D0521C07E03B
:100DB000002010BD10F8013B11F8014B1B1B07D19F
:100DC00010F8013B11F8014B1B1B01D1921EF1D110
:100DD000184610BD40EA0103024630B59B0710D10A
:100DE0004FF0013400E008C208C91D1B9D4315EAFD
:100DF000C41FF8D013F0FF0102F8011B0DD01B0A2D
:100E0000F8E711F8013B002B02F8013B05D011F87F
:100E1000013B002B02F8013BF3D130BD10B5431C60
:100E200002E010F8011B71B18107FAD14FF00132D5
:100E300002C88C1A8C4314EAC211F9D0C01A0A06EF
:100E400003D0C01E10BDC01A10BD0A0401D0801E00
:100E500010BD0902FCD0401E10BD032A40F23080B4
:100E600010F0030C00F0158011F8013BBCF1020FEB
:100E7000624498BF11F801CB00F8013B38BF11F86C
:100E8000013BA2F1040298BF00F801CB38BF00F883
:100E9000013B11F0030300F06780083AC0F00880BE
:100EA00051F8043B083A51F804CBA0E80810F5E7E4
:100EB000121D5CBF51F8043B40F8043BAFF30080C7
:100EC000D20724BF11F8013B11F801CB48BF11F83C
:100ED000012B24BF00F8013B00F801CB48BF00F80C
:100EE000012B7047431A28BF9A427FF6B6AF1044D1
:100EF0001144032A40F2268010F0030F1EBF11F8A0
:100F0000013D521E00F8013D10F0030F7FF4F6AFD3
:100F100011F0030300F06D80083AC0F00B8051F827
:100F2000043D083A51F804CD40F8043D40F804CDA2
:100F3000FFF7F3BF121D5CBF51F8043D40F8043DBC
:100F4000AFF30080D20724BF11F8013D11F801CDA5
:100F500048BF11F8012C24BF00F8013D00F801CD75
:100F600048BF00F8012C704710B5203AC0F00B8044
:100F7000B1E81850A0E81850B1E81850A0E818508F
:100F8000203ABFF4F5AF5FEA027C24BFB1E8185005
:100F9000A0E8185044BF18C918C0BDE810405FEA67
:100FA000827C24BF51F8043B40F8043B08BF7047E3
:100FB000D20728BF31F8023B48BF11F8012B28BFE8
:100FC00020F8023B48BF00F8012B7047431A28BFA6
:100FD0009A427FF6C9AF1044114410F0030F1EBFB0
:100FE00011F8013D521E00F8013D10F0030F7FF48F
:100FF000F6AF103AC0F00A8010B531E9185020E978
:101000001850103ABFF4F9AFBDE81040530724BFA1
:1010100031E9081020E9081044BF51F8043D40F8B8
:10102000043D12F0030F08BF7047D20728BF31F804
:10103000023D48BF11F8012C28BF20F8023D48BFEF
:1010400000F8012C704702F0FF0343EA032242EA52
:10105000024200F024B84FF000020429C0F01280D0
:1010600010F0030C00F01B80CCF1040CBCF1020F5B
:1010700018BF00F8012BA8BF20F8022BA1EB0C0130
:1010800000F00DB85FEAC17C24BF00F8012B00F826
:10109000012B48BF00F8012B70474FF0000200B54C
:1010A000134694469646203922BFA0E80C50A0E88B
:1010B0000C50B1F12001BFF4F7AF090728BFA0E839
:1010C0000C5048BF0CC05DF804EB890028BF40F805
:1010D000042B08BF704748BF20F8022B11F0804F47
:1010E00018BF00F8012B704710B5044610F0030F2D
:1010F00008BF11F0030F40F015804FF0013E121FA2
:10110000C0F20E8051F8043BA3EB0E0C2CEA030C4A
:101110001CEACE1C08BF40F8043BF0D0A1F104014A
:1011200002F10402521E08DB11F8013B00F8013BFA
:10113000002BF7D11146FFF78EFF204610BD0000AF
:1011400030B44FF0013C50F8042BCCFA52F451F873
:10115000043BD51A20D1FCB950F8042BCCFA52F438
:1011600051F8043BD51A17D1B4B950F8042BCCFA76
:1011700052F451F8043BD51A0ED16CB950F8042B37
:10118000CCFA52F451F8043BD51A05D1002CDAD030
:1011900030BC4FF00000704729BAB1FA81F111F06C
:1011A0001801D1F120008440F2D1CA40CB4012F0A6
:1011B000FF0213F0FF0330BCD01A7047704770472E
:1011C00070470000004870476C050020704710B55C
:1011D000FFF7F8FF083010BD10B5FFF7F3FF203020
:1011E00010BD704770477047704738B504460A46CF
:1011F00000206946AFF30080002808BF38BD0246D2
:101200000099204600F028FB012038BD012000F0A5
:1012100073BBF8B5AFF30080054600200C461020E4
:1012200000BF0646A819A0420DD9324669460020E3
:10123000AFF30080070008BF00F05EFB0098A042FB
:1012400018BF0546C419FFF7C2FF05600746F01D29
:1012500020F007004619284600F00AF8B44208BFFB
:10126000F8BDA21B31463868BDE8F84000F0F4BA7A
:1012700000210160C0E901100C300BF0DDB8102036
:1012800070473A2800D2303820F02002412A01D39A
:10129000A2F13700884201D34FF0FF3070472DE9AB
:1012A000F05F824615468B4600270AF10104B946D5
:1012B0000078302801D09DB113E014F8010B01270C
:1012C000782803D0582801D045B10AE00DB1102D7F
:1012D00007D1002714F8010B102502E0082500E0D3
:1012E0000A250026B0460EE005FB080005FB06F1C6
:1012F00001271FFA80F801EB1046B6F5803F00D3B6
:10130000B94614F8010B2946FFF7BBFF0028EBDABA
:10131000BBF1000F05D00FB1641E00E05446CBF8BE
:101320000040B9F1000F06D0FFF770F8022101600C
:10133000C81EBDE8F09F48EA0640FAE72DE9F047ED
:1013400005460C46C86820F4201040F48000C860B0
:10135000800602D5084600F034F9E06841F28201C7
:101360004FF0FF390140022903D0204600F0D2F8A7
:10137000B5E000F42041B1F5004F0FD1C00306D510
:101380006168E06A884200D80846606006E020692B
:10139000E062606060690BF0C7F9A061A06800229C
:1013A000EEB200280DDAE1688B050AD4C043A060D4
:1013B00041F490302260E0606068411C616006701A
:1013C000A5E0E0689046226040F40050E0602069AB
:1013D00068BB60690BF0BCF9012704F12405A0B1DA
:1013E000A08910F4407F08D0E069FFF75AF8206127
:1013F00018B1E06840F4006016E0E7612561E0683C
:1014000020F4407040F480600EE0E069FFF749F896
:1014100000282061F1D0E06840F4006010F4407FC3
:10142000E06002D140F48070E06020696060E068B4
:1014300025696FF0010AC1051FD56168E06A88421D
:1014400000D80846411B04D02246284600F06CF81C
:10145000F0BBE068010203D5E562C4E9015854E03D
:10146000691CE1626160E16940F48030491EC4E9B1
:10147000021030462E70BDE8F087010202D500F45C
:1014800080320AE06068411C61600670E0680A2EE4
:1014900040F48030E06006D00022E16A606881425A
:1014A00003D90B4602E00122F7E70346A7895B1B3D
:1014B0007F0503D4E7699F4200DDE2B1814200D895
:1014C0000146E5620F1AC4E90158002B09DD00E06E
:1014D00005E022461946284600F026F808B148469D
:1014E000C9E747B1A069E5626560C01BA061E0681B
:1014F00040F01000E060E068000208D56168A06973
:10150000E562491B08446560A0615046B3E7304678
:10151000B1E70000C16821F4001141F08001C16011
:1015200000218160016070472DE9F0478146144633
:101530000E464FF0FF383248D5685769054209D04A
:101540003846A1690BF040F9002811DB2C48C04354
:101550000540E5602B463246494638460BF03CF9DB
:10156000A16920F00042B21A11440028A16103D001
:101570002046FFF7CFFF4046BDE8F08770B5044630
:101580000569C06A6168884200D80846E16821F4AC
:101590002011E160C90312D5A84208D02246411BA0
:1015A0002846FFF7C1FF10B14FF0FF3070BD00209B
:1015B000E562C4E90150E06820F48030E06000207A
:1015C00070BD10B50446C06820F02000E060A16A3C
:1015D000A06988420DD02046FFF7D0FFE06820F4D4
:1015E000405040F01000E060A06AA0612069E06215
:1015F000606044F24001E0688843E06010BD000094
:10160000100002002DE9F04704461E4690460D46A4
:10161000C7684C3081460AF0DFFEB80714D0780264
:1016200012D44046B8F5807F09D0B0F5007F06D0CF
:10163000B8F5806F08D1012604F1240506E0701E7C
:101640006FF07F41884201D3012409E02561E66102
:101650006560E06820F4706040EA0800E060002403
:1016600048460AF039FF2046BDE8F08710B56548C6
:101670005421FFF712FD64485421FFF70EFD634823
:101680005421FFF70AFD62485E49624A624B0160DD
:101690005D4810605D4A1A60431C0B65511C016572
:1016A0000120106557484C300AF0C6FE56484C30B1
:1016B0000AF0C2FE55484C300AF0BEFE57480AF008
:1016C000BBFE58484F4A56A17844FFF7DBFA20B9D1
:1016D000544878440A3800F008F954484A4A52A15C
:1016E0007844FFF7CFFA20B9504878440A3800F020
:1016F000FCF84F48454A4CA17844FFF7C3FA20B99B
:101700004B4878440A3800F0F0F840233D48DC00AC
:1017100000212246FFF776FF20B142487844543832
:1017200000F0E3F83848224640230021FFF76AFF23
:1017300020B13E487844543800F0D7F83348224668
:1017400010230021FFF75EFF002806D038487844B8
:10175000BDE81040563800F0C8B810BD2B482DE940
:10176000F041006D2D4E20F0010430460AF034FEA9
:10177000244D4C3528460AF02FFE2248FFF7A7F9E2
:1017800028460AF0A9FE28460AF036FE1E4D4C35C2
:1017900028460AF021FE1C48FFF799F928460AF06E
:1017A0009BFE28460AF028FE184D4C3528460AF0C4
:1017B00013FE1648FFF78BF928460AF08DFE2846DF
:1017C0000AF01AFE14E0206D20F0010504F14C002F
:1017D00007460AF001FE2046FFF779F938460AF07D
:1017E0007BFE38460AF008FE2046FEF795FE2C46A2
:1017F000002CE8D130460AF06FFE08480AF0FCFDE4
:10180000BDE8F08170040020C40400201805002009
:10181000F8020020FC020020000300200403002046
:1018200072000000D8CF010077000000C7CF010090
:10183000A0CF010010B5002000F050F8AFF30080F9
:10184000BDE8104001200AF06BBF801A0844401E1A
:10185000491E88431044704770B5144605468C46AF
:101860004368002B18BF634538BF1846F8D3026899
:101870001044604508D06646604604220821FFF700
:10188000E4FF811B8446641A2946CCF80040BDE879
:10189000704000220CF10400FEF70DBE70B5044646
:1018A0000D4D28460AF098FD03E01BF009FF401C8F
:1018B0000ED0094914F8010B4C390028F5D10A2043
:1018C0001BF0FEFE044628460AF006FE204670BDC8
:1018D0004FF0FF34F7E700001005002010B500F0CE
:1018E0001FF8BDE8104000F016B810B500F030F851
:1018F000BDE8104000F00FB810B500F043F8BDE8A7
:10190000104000F008B810B5FFF761FC0068BDE8B2
:10191000104000F05FB8002801D00AF001BF704706
:1019200010B5002102A000F05AF8012010BD0000FF
:10193000534947414252543A2041626E6F726D6181
:101940006C207465726D696E6174696F6E00000061
:1019500010B5014602A000F042F8012010BD0000C1
:1019600053494752545245443A205265646972655E
:1019700063743A2063616E2774206F70656E3A203D
:101980000000000010B5012805D0002103A000F0E0
:1019900026F8012010BD09A1F8E70000534947527D
:1019A000544D454D3A204F7574206F66206865612F
:1019B00070206D656D6F7279000000003A204865F7
:1019C0006170206D656D6F727920636F72727570D2
:1019D0007465640010B50C300AF00EFD10BD70B5D2
:1019E00005460C460A2000E06D1C0AF0CDFF35B11B
:1019F00028780028F8D102E0641C0AF0C5FF14B171
:101A000020780028F8D1BDE870400A200AF0BCBF59
:101A100083B080B583B0CDE905120246079305ABCC
:101A200040F2C44C00206FF000410293C2F2000C5F
:101A3000CDF800C011F028F903B0BDE8804003B034
:101A4000704700000000000081B080B583B00593AE
:101A500005AB02934FF0000CCDF800C011F014F963
:101A600003B0BDE8804001B07047000000000000F6
:101A700082B080B582B08C460492059304AB6FF0BF
:101A80000041002200926246019311F0FDF802B07D
:101A9000BDE8804002B0704780B582B094460A46E7
:101AA000034600206FF000410093634611F0ECF80C
:101AB00002B080BD0000000080B54FF6004249F240
:101AC000F00349F2E4004FF60041C2F20702C2F20D
:101AD0000003C2F20000C2F2070193421CBF184685
:101AE0001146FEF7D3FB80BD0020704700000000C8
:101AF0000020704700000000002070470000000038
:101B00000020704700000000002070470000000027
:101B10000020704700000000002070470000000017
:101B20000020704700000000002070470000000007
:101B300080B582B04FF0000CCDF800C011F0A4F8D1
:101B400002B080BD000000004EF69851CEF20001B8
:101B500008600020886070474EF69C52CEF200026A
:101B6000106051607047000080B546F200400021CF
:101B7000C4F200000BF0D4F880BD000000000000AB
:101B800080B546F200400021C4F200000BF0C8F816
:101B900080BD00000000000080B546F2004000213A
:101BA000C4F200000BF0BCF880BD00000000000093
:101BB00080B546F600000121C4F200000BF0B0F839
:101BC00080BD00000000000080B546F60000012145
:101BD000C4F200000BF0A4F880BD0000000000007B
:101BE00080B546F600000121C4F200000BF098F821
:101BF00080BD00000000000080B543F200400221DB
:101C0000C4F200000BF08CF880BD00000000000062
:101C100080B543F200400221C4F200000BF080F8CE
:101C200080BD00000000000080B543F200400221AA
:101C3000C4F200000BF074F880BD0000000000004A
:101C40004EF604504FF00061CEF200000160704784
:101C5000006841F21801425842F0020242507047B7
:101C6000006841F21801425842F400524250704755
:101C7000B0B582B004460020019041F218052068FA
:101C8000415941F48011415140590190012000F027
:101C90004BF901982168485102B0B0BD0000000026
:101CA00080B504F021FC43F65000C2F2000004307D
:101CB00000F0AAFA80BD000048F240028188C4F218
:101CC00002021160006850607047000000000000D0
:101CD00070B5044629B14FF48040A0604FF4006015
:101CE000E0602068E2694FF40073D4F808C0002A6D
:101CF000D4F80CE008BF4FF4C06348F20F1201683B
:101D0000CFF62072114043EA0C02114341EA0E0162
:101D100001600568012000F007F920684021056096
:101D200041604568012000F0FFF820684FF64172DD
:101D3000456000258560C560816911408031816101
:101D40008669012000F0F0F820688661C561C569E8
:101D5000012000F0E9F8206841F2180143F62373EE
:101D6000C561CFF6DE0342581A4042F0087242F0D5
:101D7000040242504558012000F0D6F820684FF484
:101D8000805600F580518D6142F28001C0F2C12180
:101D900081518559012000F0C7F82068A169012907
:101DA000855107D100F58050C16941F4803141F07F
:101DB0004001C1616069FFF77FFF70BD0000000056
:101DC00010B582B00021019104460068016841F01D
:101DD0000401016000680190012000F0A5F801985D
:101DE0002168086002B010BD10B582B000210191D9
:101DF00004460068016841F0080101600068019034
:101E0000012000F091F801982168086002B010BD2F
:101E100080B5930706D4D20700F10C0015D10AF063
:101E200083FE80BDC36802F0010203EA010040EABC
:101E3000020C8842184618BF0020002A08BF184626
:101E4000BCF1000F08BF604680BD0AF045FE80BDB2
:101E500080B50C300AF090FE80BD0000000000004C
:101E600080B50C300AF034FF80BD00000000000097
:101E7000704700000000000080B540F23712C8F241
:101E800001021AF001FF80BD80B540F23112014617
:101E9000C8F201021AF0F8FE80BD00000000000048
:101EA00080B540F23812C8F201021AF0EDFE80BD92
:101EB00080B540F23312C8F201021AF0E5FE80BD8F
:101EC00011F1110208BF704780B540F23412C8F218
:101ED00001021AF0D9FEBDE8804070470000000002
:101EE00080B540F23212C8F201021AF0CDFE80BD78
:101EF00080B514F089F91AF0DFFD80BD0000000004
:101F0000704700000000000080B51AF0D5FD80BDCC
:101F10004EF604501021CEF20000006801EA106075
:101F20007047000000000000B0B5044600F07CFDE2
:101F300040F268410546C2F20001621C097818BFF0
:101F40000C4400BF00F070FD401BA042FAD3B0BDAE
:101F500070B5044690F8450001284FF0020008BF14
:101F600070BD0D46012184F84510002D84F8440011
:101F70002068016861D048F20F12CFF6207211403C
:101F80002A6811436A681143AA681143EA68114339
:101F9000A26811432A6911436A691143E268114337
:101FA000AA691143EA6911432A6A11436A6A114313
:101FB000AA6A1143016006680120FFF7B5FF206897
:101FC00005F12C0306600ECB1143AA6B1943EB6B92
:101FD00011432A6C19436B6C1143AA6C19431143CA
:101FE000416046680120FFF79FFF2068466005F1C9
:101FF0004C064ECE8160C2604FF64172816911403D
:10200000EA6D314341EA03412B6E11436A6E194375
:10201000AB6E11431943816186690120FFF784FF8C
:1020200020688661D5E91B121143C161C569012091
:10203000FFF77AFF2068C5610CE021F49041D4E9F4
:10204000022311431943016005680120FFF76CFF6B
:1020500020680560012084F84400002084F84500D1
:1020600070BD0000000000002DE9F04390F84570BD
:102070004FF0020C012F34D04FF0010E80F845E0F4
:1020800080F844C0816213B3D0F818C05C1E01F11F
:10209000200500264FF0004844F2F4590F4645F859
:1020A000208C45F81C9CBCF1010F45F8182C02F25D
:1020B000F45208BF45F81C9CA64206F1010638BF41
:1020C0002F46B34245F8147C05F12005E6D102689D
:1020D00041F20C034FF0000CD15080F844E080F83E
:1020E00045C06046BDE8F0832DE9F04190F84570A9
:1020F0004FF0020C012F36D04FF0010E80F845E072
:1021000080F844C0C16223B3D0F81CC05C1E01F14A
:10211000200500264FF480180DE000BF0F46A642B0
:1021200038BF2F46013602F2F45245F8147CB34210
:1021300005F120050DD0BCF1000F45F8208C45F8C5
:10214000182CEBD155F8207C47F4400745F8207C4B
:10215000E4E7026841F210034FF0000CD15080F820
:1021600044E080F845C06046BDE8F0810000000012
:10217000704700000000000080B5022180F8441084
:10218000836A4FF0010C196800291FD400224FF018
:10219000010E00BF196801F44071B1F5007F03D151
:1021A0000363C0F838C006E0196811F4407F10D10D
:1021B000816B01318163DB688362022A19681DD853
:1021C000B1F1FF3F02F10102E4DC17E04FF0010E34
:1021D00014E0816A4163826B4FF0000E002A02F125
:1021E0000102826308BF01631968C1F30D41026BEC
:1021F0000439C16391680164D968816280F844C080
:10220000704680BD00000000B0B50446006841F291
:1022100014014258520608D408440068C00712D07E
:10222000204600F0F9FA012003E0204600F038FAD9
:102230004020216841F214028850012084F84400B3
:10224000002084F84500206841F214054FF48031E5
:1022500041514059000458BFB0BD2046FFF788FFE8
:1022600020684FF400414151012084F844000020CF
:1022700084F84500B0BD0000F0B583B004460028E6
:102280004FF0000002903CD094F8440028B90020A0
:1022900084F84500204600F01BF943F644004FF453
:1022A0008056C4F20200016841F480410160006878
:1022B00000F48040019043F604000199C4F201004B
:1022C000016821F4000101602168226A03681A4351
:1022D0000260885940F00100885100F0A5FB0546D6
:1022E00020688159C9070ED000F09EFB401BB0F555
:1022F000FA7FF5D9032584F84450002084F845007E
:102300004DE001254BE0006920F01C0501F094F838
:102310004DF200314EF2BF12CFF6CE61C0F2E402B0
:102320000144914202D845F0080528E04FF24011DF
:1023300047F63F02CFF6E951C0F27D1201449142C7
:1023400002D845F00C051AE047F6001145F60022C8
:10235000CFF66C41C0F26222014491420FD341F6A4
:102360000071CFF60A2108444FF27F01C0F2FA2132
:10237000884202D845F0040501E045F010052068C8
:1023800000214FF400420561204600F049FA48B1AF
:10239000012120460125FFF79BFC84F84450284684
:1023A00003B0F0BD4FF4FA70FFF7BEFD606810B3E4
:1023B00000F03AFB054602AE41F289370121204682
:1023C000324600F035F900F02FFB401BB84225D211
:1023D0009DF808004007F1D500214FF480522046B7
:1023E00000F01EFA98B3012120460125FFF770FC8A
:1023F00084F84450D3E7D4E90201400840EAD10010
:10240000002182B2204600F00BFA98B1012120464B
:102410000125FFF75DFC84F84450C0E70121204608
:102420000125FFF755FC84F84450002084F845004E
:102430000325B4E740F6FF70FFF776FD0021204644
:102440000025FFF745FC012084F84400A7E700F0D1
:10245000EBFA054602AE41F2893700BF0121204662
:10246000324600F0E5F800F0DFFA401BB84211D226
:102470009DF808008006F1D502AA1F21204600F031
:10248000D7F898B1012120460125FFF721FC84F8F7
:10249000445084E7012120460125FFF719FC84F808
:1024A0004450002084F84500032578E702984FF453
:1024B0000061420701EAC010E06003D44FF480409D
:1024C000A060BBE70020A060B8E7000000000000AB
:1024D00070B586B048F200010068C4F2020188427B
:1024E00001D006B070BD4EF614500021CEF20000AF
:1024F00043F6E07C0167BFF34F8F016821F4803120
:102500000160BFF34F8FC26EC2F34E31C2F3C902F6
:1025100002F1010E940700BF0CEA411523467246F2
:1025200043EA0506013A03F14043C0F86062F7D17F
:102530000029A1F10101EFD143F630060024BFF3D9
:102540004F8FC4F20206C4F20204BFF36F8F3068EB
:1025500001AD40F0010030603068294600F0010014
:1025600001900198306840F002003060306800F05F
:10257000020001900198306840F00400306030683B
:1025800000F0040001900198306840F04000306095
:10259000306800F040000190019803200490022070
:1025A0000290002003900B20059086200190204689
:1025B00000F06EF94FF40050019004F58060294658
:1025C00000F066F93220019004F50060294600F021
:1025D0005FF942F60400019004F5C050294600F06E
:1025E00057F93D200721002200F016FB3D2000F0A6
:1025F0000FFB306840F000703060306800F0007011
:1026000000900098306840F080603060306800F0E2
:10261000806000900098306840F000603060306862
:1026200000F000600090009806B070BD000000004F
:1026300070B5044690F84400822801D1022070BD94
:10264000822084F84400206815460269238A02F03B
:102650001C0203F01F0361F38A1242EAC321013115
:10266000016100F0E1F9064600F0DEF9801BB0F5EB
:10267000803F0CD220680069C007F5D1206840690E
:1026800080B22860012084F84400002070BD012041
:1026900084F84400002084F84500032070BD000049
:1026A00080B503F021FF43F65000C2F20000C06C79
:1026B000002808BF80BD012113F072FD80BD00001D
:1026C000B0B5044690F8450001284FF0020008BF5D
:1026D000B0BD012584F8455084F844002046FFF73A
:1026E00083FB2046FFF76CFB2046FFF7C1FA20462C
:1026F000FFF7B6FA2046FFF7ABFA002084F8445003
:1027000084F84500B0BD000070B500294FF002020A
:1027100080F844203ED0D0F82CE0DEF80020002ADB
:102720003BD440F2F55291424FF0010210D34BF2EC
:102730000B0440F2F453CAF60244A1FB044C4FEAE6
:102740009C2404FB1313002B18BF02EB9C2422468D
:10275000A2B1012A2FD1DEF8002042F04052CEF87B
:1027600000206FF35F31CEF80410BFF35F8FC16AB2
:102770000A68CB6842F000420A60C362BFF35F8F11
:10278000026841F21401515849074FF0000107D483
:1027900001220CE00122012109E00121122206E0C0
:1027A00041F204031A44042313611160012280F8EA
:1027B0004420084670BD4FF60C24531ECFF6FF741C
:1027C00040F2F45E03FB041C00216FF35F3C0BE05E
:1027D000BFF35F8FC46A01318A422568E66845F01D
:1027E00000452560C662C9D0C46A256825F04055F9
:1027F000256019B9256845F0805525608B42C4F8DD
:1028000004E0E5D1256845F000552560C4F804C012
:10281000DEE700000000000070470000000000003C
:10282000B0B5044690F84400422801D10220B0BD62
:10283000422084F84400206892B20369258A03F09C
:102840001C03426105F01F0561F38A1343EAC521A9
:102850000331016100F0E8F8054600BF00F0E4F83C
:10286000401BB0F5803F08D220680069C007F5D151
:10287000012084F844000020B0BD012084F8440009
:10288000002084F845000320B0BD000000000000D7
:102890002DE9F04F83B000F13E4242F2004702F1D1
:1028A000FF72C4F202070A2343F6004BB8424FEA14
:1028B000B2220092C4F2010B08BF092300254FF099
:1028C000010E00224FF00008019308E008F1010812
:1028D0000432B8F1100F05F1020500F0A1800EFAE4
:1028E00008F70C6814EA070CF0D0D1F804A0BAF18C
:1028F000120F15D80EFA0AF414F0061F10D0032395
:10290000846803FA05F6CB68B443AB402343836085
:102910004368CAF30014BB4304FA08F4234343603A
:102920000324C368AC404AF010066FEA0409A343CD
:102930008C68122E04FA05F443EA0403C36011D133
:102940006FF0030302F01C0603EA58030F2403444C
:1029500004FA06F7D3F820A00C692AEA0707B44066
:102960003C431C6203684C6804F0030603EA090355
:10297000AE40E40043EA06030360A7D543F64404EF
:102980004FF6084AC4F20204CFF6FF7A236843F4F4
:1029900080432360236802F00C0403F48043029315
:1029A000029B28F003035B44009F019E092F38BF60
:1029B0003E460F2753F80A90A74029EA070706FA70
:1029C00004F43C4343F80A40DBF800304C6843EA27
:1029D0000C06E70358BF23EA0C06A703CBF80060F8
:1029E000DBF8043043EA0C0658BF23EA0C06E70282
:1029F00043F60C47CBF80460C4F20107DBF808305B
:102A000043EA0C0658BF23EA0C06A402CBF8086080
:102A10003B6843EA0C0658BF23EA0C063E6055E7C4
:102A200003B0BDE8F08F000010B540F6244048F632
:102A30001C1E48F61A1CC4F20000C2F2000EC2F2BC
:102A4000000C02680024DEF80030BCF80000D11A47
:102A5000CEF800200144B4EB114F17D1B1F57A7FC5
:102A600020D3104444F6D351C01AC1F26201A0F53C
:102A70007A704FF61843A0FB0112CFF6FF7391094D
:102A800001FB0301012000EB92120CE044F6D3504D
:102A9000C1F26200A1FB00024FF47A70920902FBBE
:102AA000101100E0002248F6DC43ACF80010C2F23E
:102AB000000318681044186010BD000000000000FA
:102AC00080B543F60040C4F20200016841F4007191
:102AD0000160016841F480710160032000F0ACF8EE
:102AE0000F2000F005F800F08FF8002080BD0000F6
:102AF00080B50DF0EDFA002080BD00000000000060
:102B000010B50446022084F82E006068012808D021
:102B1000A06AB0F5000F04D12068C26822F4606298
:102B2000C2602068026942F0010202611022426024
:102B300081611021204601F053F9032801D10320BF
:102B400010BD2068016941F004010161012084F891
:102B50002E00002010BD000000284ED070B50446A5
:102B600090F82E0028B9002084F82D00204600F0AF
:102B700047F8022084F82E00D4E900C2A3686669F1
:102B8000DCF80C00012A4FF6FF7E4FF2201108BF3F
:102B900020F006007645CFF6197118BF20F460408A
:102BA000002A08BF0840D83100EA010043EA0201C8
:102BB000D4E9083541EA0301A36A41EA050141EA83
:102BC000030141EA000322B9E0692169184340EAA0
:102BD0000103012A04BFE06803434FF6FF708642F9
:102BE00004D0A06943EA060141EA0003CCF80C30A6
:102BF000012084F82E00002070BD012070470000E5
:102C00007047000000000000704700000000000056
:102C100080B509F03DFA80BD70B514460D460646F4
:102C200009F05EFA2946224601F05EF90146304677
:102C300009F066FA70BD000080B509F075FA80BD34
:102C4000B0B582B043F6400047F20005C4F202007E
:102C5000C4F20005016841F080510160006800F095
:102C6000805001900198286840F480302860FFF778
:102C7000DBFE04466868C00306D4FFF7D5FE001BE0
:102C8000B0F57A7FF6D910E0286840F4003028606B
:102C9000FFF7CAFE044600BF6868800308D4FFF748
:102CA000C3FE001BB0F57A7FF6D9032002B0B0BD99
:102CB000002002B0B0BD00004EF610500129CEF247
:102CC0000000026822F004020260BFF34F8FBFF3DE
:102CD0006F8F01D130BF704740BF20BF20BF70470A
:102CE0002DE9F04782B0D0F800A043F690060446E4
:102CF0005FEACA70C4F202061AD14FF000095FEA17
:102D00000A3028D556F8040CE16B20F44010B1F5D8
:102D1000801F40EA010046F8040CB1FA81F04FEA46
:102D2000501808BF4FF001095FEACA2018D429E003
:102D300056F8880C20F4000046F8880C606B56F8B2
:102D4000881C014346F8881CB0FA80F04FEA5019FD
:102D50005FEA0A30D6D44FF000085FEACA2011D5E6
:102D600056F8040C216C20F44000B1F5800F40EAC5
:102D7000010008BF4FF00109002908BF4FF001080A
:102D800046F8040C5FEA8A6059D556F8500C47F2B1
:102D9000000740F0805046F8500CC4F2000756F887
:102DA000500C00F0805001900198386840F4807019
:102DB0003860FFF739FE05463868C00505D4FFF7CF
:102DC00033FE401B6428F7D954E256F8200C10F467
:102DD00040701BD0216B01F44071884216D056F828
:102DE000200C56F8201C41F4803146F8201C56F87F
:102DF000201C20F4407021F4803146F8201C46F855
:102E0000200C56F8200CC00740F038824FF6FF43E4
:102E1000206B56F8882CC0F6FF7300F4407122F442
:102E2000F8120340B1F5407F08BF1A436FF31F301B
:102E300046F8882C56F8201C084346F8200C2768D2
:102E4000F80662D478046ED4380474D4F8037BD4C2
:102E5000B80300F18280780600F18880380600F11E
:102E60008E80F80500F19480B80500F19A8078050D
:102E700000F1A080380500F1A680F80400F1AC80D4
:102E8000B80400F1B280780200F1B880B80200F115
:102E9000BE80780300F1CA80380200F1D08078014A
:102EA00000F1D780380108D556F8040CD4F8881002
:102EB00020F00070084346F8040CF8000AF0807017
:102EC00008D556F8041CD4F88C2021F080611143F9
:102ED00046F8041C002808BFB9F1000F00F0C480B8
:102EE00056F8900C20F0806046F8900CFFF79CFD9F
:102EF000054600BF56F8900C000140F1D380FFF763
:102F000093FD401B6428F5D9B4E156F8040C20F079
:102F1000807046F8040CA06B56F8041C084346F871
:102F2000040C780490D53068616E20F4403008437A
:102F3000306038048AD53068A16E20F44020084300
:102F40003060F8037FF584AF3068E16E20F4401004
:102F500008433060B8037FF57EAF3068216F20F4FE
:102F600040000843306078067FF578AF3068616CC8
:102F700020F003000843306038067FF572AF3068F8
:102F8000A16C20F00C0008433060F8057FF56CAFB1
:102F90003068E16C20F0300008433060B8057FF500
:102FA00066AF3068216D20F0C000084330607805BE
:102FB0007FF560AF3068616D20F440700843306089
:102FC00038057FF55AAF3068A16D20F440600843A2
:102FD0003060F8047FF554AF3068E16D20F4405064
:102FE00008433060B8047FF54EAF3068216E20F49E
:102FF00040400843306078027FF548AF3068A16FE9
:1030000020F0806008433060B8027FF542AF30683E
:10301000E16F20F00060B1F1006F40EA010008BFED
:103020004FF00108306078037FF536AF3068616F8C
:1030300020F040700843306038027FF530AF3068D0
:10304000D4F8801020F080500843306078017FF57C
:1030500029AF3068D4F8841020F000500843306065
:1030600038013FF521AF28E7B7F1007F3FF438AFD3
:1030700017F0080008BFB8F1000F00F08E8056F876
:10308000900C20F0805046F8900CFFF7CDFC0546E0
:1030900056F8900C800014D5FFF7C6FC401B64283E
:1030A000F6D9E7E02068C10702D0616B002978D02B
:1030B000010340F18A80E16BB1F5801F40F085800B
:1030C00089E02068010301D5E16B19B1C1021ED569
:1030D000216CE1B956F8081C56F8082C01F440316F
:1030E00002F0E04263691144A26941EA8311A76AD0
:1030F00041EA026146F8081C56F8041C6FF0FF0212
:1031000021F4F85102EB0722114346F8041C810216
:1031100014D5E16FB1F1006F10D156F8081C56F8C4
:10312000082C01F0706102F0E0426369276A1144E3
:1031300041EA831141EA074146F8081C000718D507
:1031400056F8080C56F8081C00F0706001F4403185
:1031500062690844E16940EA8210E36A40EA01706A
:1031600046F8080C56F8040C20F44030184346F892
:10317000040C56F8900C40F0805046F8900CFFF785
:1031800053FC044656F8900C800006D4FFF74CFC24
:10319000001B6528F6D3032082E0002002B0BDE8C2
:1031A000F08756F80C1C56F80C2C01F4403102F054
:1031B0007062D4E90135114441EA831141EA057195
:1031C00046F80C1C01033FF576AFC1021DD5216CFA
:1031D000B1F5800F19D156F80C1C56F80C2C01F4DF
:1031E000403102F0E04263681144E26841EA831131
:1031F000656A41EA026146F80C1C56F8041C6A1E16
:1032000021F01F01114346F8041CC10110D556F8E6
:103210000C1C56F80C2C01F0706102F0E04263685F
:103220002569114441EA831141EA054146F80C1C25
:1032300080010CD56068A368D4E90321090441EA40
:10324000801040EA026040EA037046F80C0C56F821
:10325000900C40F0806046F8900CFFF7E5FB0546C7
:1032600056F8900C00013FF503AFFFF7DDFB401B64
:103270006428F5D9032002B0BDE8F087FFF7D4FB3E
:10328000054641F2883700BF56F8200C80073FF50D
:10329000BDADFFF7C9FB401BB8424FF00300F3D9A7
:1032A00002B0BDE8F08700002DE9F041002800F0F1
:1032B000868043F608070446C4F202078846D7F81A
:1032C000F80300F00F0088420DD2D7F8F80320F081
:1032D0000F0040EA0800C7F8F803D7F8F80300F039
:1032E0000F0040456BD12068810711D5410703D5F8
:1032F000396841F4E0513960010703D5396841F478
:10330000604139603968A26821F0F00111433960E9
:10331000C0073FD1D7F8F80300F00F0040450DD9A2
:10332000D7F8F80320F00F0040EA0800C7F8F803C8
:10333000D7F8F80300F00F00404540D1206841075E
:1033400005D53968E26821F4E0511143396000077E
:1033500006D53868216920F4604040EAC100386031
:1033600000F09AF839684DF61802C0F60102C1F370
:103370000311515C40F26C42C2F20002C84040F2BC
:103380000831C2F2000108601068FFF7B1FB0020AD
:10339000BDE8F0816068012806D157F8081C890350
:1033A00010D40120BDE8F081022857F8081C04D190
:1033B000890107D40120BDE8F081890702D40120EA
:1033C000BDE8F081396821F0030108433860FFF758
:1033D0002BFB064641F288353868616800F00C0026
:1033E000B0EB810F96D0FFF71FFB801BA842F3D9EB
:1033F0000320BDE8F08100000F22026043F60802BE
:10340000C4F20202136803F003034360136803F07D
:10341000F0038360136803F4E053C360D2F800C084
:103420004FF4E05303EADC030361D2F8F80300F041
:103430000F0008607047000040F20830C2F2000040
:10344000006870470000000080B5FFF7F5FF43F605
:1034500008014DF62802C4F20201C0F60102096813
:10346000C1F38221515CC84080BD00000000000013
:1034700080B5FFF7E1FF43F608014DF62802C4F2DC
:103480000201C0F601020968C1F34231515CC84033
:1034900080BD00000000000010B543F60404C4F233
:1034A0000204606800F00C0142F200400829C0F2FA
:1034B000F40007D0042918BF10BD41F20020C0F26B
:1034C0007A0010BD22682368216802F03F025B0287
:1034D000C1F3881105D4A1FB00010023FDF726F8F4
:1034E00006E041F20020C0F27A004843B0FBF2F05F
:1034F00021680222C1F3014102EB4101B0FBF1F06E
:1035000010BD0000000000002DE9F04182B000284D
:1035100000F0A5800446007843F60006C007C4F218
:10352000020643D0B06800F00C00042805D13068D2
:1035300080033BD56068C8BB91E0B06800F00C0028
:10354000082802D170684002F1D465686DB1B5F504
:10355000803F06D0B5F5A02F306807D140F4802019
:103560003060306840F4803006E0306820F480300D
:103570003060306820F480203060FFF755FA002D6D
:10358000054610D03068800310D4FFF74DFA401B79
:103590006428F7D922E100BFFFF746FA401B6428F0
:1035A0004FF0030058D830688003F5D420788007A6
:1035B00018D5B06810F00C0F07D0B06800F00C0000
:1035C000082873D17068400270D43068800702D533
:1035D000E068012843D13068216920F0F80040EA12
:1035E000C1003060207800073DD4207840074ED4D9
:1035F000A56985B3B06800F00C00082840F0A280EF
:10360000012D70682BD000F48001E269914226D12F
:1036100000F03F01226A914221D147F6C071626AEF
:103620000140B1EB821F1AD1A16A4FF6FF72C903A4
:10363000914300F44032A1F580318A420FD1E16A12
:1036400000F07062B2EB016F09D1216B00F0E04035
:10365000B0EB017F03D1002002B0BDE8F081012072
:1036600002B0BDE8F08160690028706F5AD040F068
:1036700001007067FFF7D8F9054600BF706F80073B
:10368000B3D4FFF7D1F9401B0228F7D9A6E0306C7C
:10369000C0001FD4306C4FF0010840F080503064FF
:1036A000306C00F080500190019815E0E06800282F
:1036B000306869D040F001003060FFF7B5F9054689
:1036C000306880073FF587AFFFF7AEF9401B02284F
:1036D000F6D983E04FF0000847F20007C4F2000774
:1036E0003868C0050FD4386840F480703860FFF740
:1036F0009BF905463868C00505D4FFF795F9401BCE
:103700006428F7D96AE0A568002D4FD0012D05D0B7
:10371000052D306F4BD140F004003067306F40F022
:1037200001004AE020F001007067FFF77DF90546CF
:10373000706F80077FF559AFFFF776F9401B0228BD
:10374000F6D94BE0306820F080703060FFF76CF9FC
:10375000022D05460CD100BF3068800156D5FFF719
:1037600063F9401B02284FF00300F5D974E700BF4E
:10377000306880017FF56FAFFFF756F9401B0228D4
:103780004FF00300F4D967E720F001003060FFF745
:103790004BF90546306880077FF524AFFFF744F901
:1037A000401B02284FF00300F4D955E7306F20F09A
:1037B00001003067306F20F004003067FFF734F904
:1037C000002D054641F2883714D000BF306F8007C6
:1037D00013D4FFF729F9401BB842F7D9032002B0F0
:1037E000BDE8F081FFF720F9401BB8424FF003001D
:1037F0003FF632AF306F8007F4D4B8F1000F3FF4DA
:10380000F7AE306C20F080503064F1E604F11C0714
:10381000256B8FCF0843D9034FF6FF7340EA821020
:10382000994340EA0760A1F58031084340EA0570FA
:103830007060306840F080703060FFF7F5F8044643
:10384000306880013FF507AFFFF7EEF8001B022854
:103850004FF00300F4D9FFE690B110B504460068BC
:10386000016821F00C010160416821F060014160B4
:10387000204600F051F800206071A060207110BD5A
:10388000012070470000000070B50446007901284F
:1038900001D1022070BD012020716079012813D16F
:1038A0000D4602206071FFF7BFF8064620684168A8
:1038B000C9070DD1FFF7B8F8801B0328F6D3012004
:1038C00060710221A16009E00420A060012005E0F0
:1038D0008068E06028600120607100200021217173
:1038E00070BD000000000000A0B110B50446407992
:1038F00020B900202071204600F012F802206071EB
:103900002068016841F0040101600120607100201D
:10391000A06010BD0120704770470000000000004B
:103920007047000000000000B0B110B5044690F8E8
:103930003D0028B9002084F83C00204600F010F833
:10394000022084F83D002068211D00F0B5FD012013
:1039500084F83D00002010BD0120704700000000E9
:10396000704700000000000010B504460068012206
:1039700000F036FE206840F2004240F48061C4F25C
:103980000102914240F2070202BF416C41F4004142
:1039900041648168C0F201021140062918BFB1F5E7
:1039A000803F01D1002010BD016841F0010101609C
:1039B000002010BD0000000010B5A0B10446406F0B
:1039C00028B9002084F87000204600F025F8242053
:1039D00060672068016821F001010160204600F065
:1039E00023FF012801D1012010BD606A10B12046DB
:1039F00000F076FE2068416821F4904141608168C2
:103A000021F02A018160016841F001010160204636
:103A100000F0D6FE10BD000070470000000000005E
:103A2000EFF3108000281CBF01207047EFF31180D6
:103A3000002818BF01207047EFF3108000281CBF3A
:103A400001207047EFF31180002818BF0120704754
:103A5000EFF3108000281CBF01207047EFF31180A6
:103A6000002818BF01207047EFF3108000281CBF0A
:103A700001207047EFF31180002818BF0120704724
:103A8000EFF3108000281CBF01207047EFF3118076
:103A9000002818BF01207047EFF3108000281CBFDA
:103AA00001207047EFF31180002818BF01207047F4
:103AB000EFF3108000281CBF01207047EFF3118046
:103AC000002818BF01207047EFF30580002818BFB9
:103AD0000120704700000000EFF30580002818BFA8
:103AE0000120704700000000EFF30580002818BF98
:103AF0000120704700000000EFF30580002818BF88
:103B00000120704700000000EFF30580002818BF77
:103B10000120704700000000EFF30580002818BF67
:103B20000120704700000000EFF30580002818BF57
:103B300001207047000000000121EFF3148021EA0A
:103B40000000704700000000B0B500F0F1F940F24D
:103B5000C0340125C2F200046572BFF34F8FFEF737
:103B6000D7F9002808BFB0BDFEF76AF8A572B0BD4E
:103B700080B540F2C0300021C2F200004172BFF3B4
:103B80004F8F827A12B1817200F066FA00F0DCF990
:103B900080BD00000000000091FAA1F10322B1FAFB
:103BA00081F1006849008A401040C8407047000019
:103BB00080B591FAA1F14FF00F0CB1FA81F1D0F874
:103BC00020E089000CFA01F32EEA030302FA01F166
:103BD0001943016280BD000080B5090A4FF00F0C47
:103BE000D0F824E091FAA1F1B1FA81F189000CFA40
:103BF00001F32EEA030302FA01F11943416280BD89
:103C000080B591FAA1F14FF0030CB1FA81F1D0F82F
:103C100000E049000CFA01F32EEA030302FA01F175
:103C20001943016080BD000080B591FAA1F14FF009
:103C3000030CB1FA81F1D0F800E049000CFA01F36D
:103C40002EEA030302FA01F11943016080BD00006E
:103C500043684A4323EA0101114341607047000071
:103C600080B591FAA1F14FF0030CB1FA81F1D0F8CF
:103C70000CE049000CFA01F32EEA030302FA01F109
:103C80001943C16080BD000080B591FAA1F14FF0E9
:103C9000030CB1FA81F1D0F808E049000CFA01F305
:103CA0002EEA030302FA01F11943816080BD00008E
:103CB00047F20000C4F20000006800F00100704705
:103CC000416941F0020141617047000000000000BD
:103CD000F0B581B009F088F945F6983040F2D0642B
:103CE000C2F20000C2F20004017831B1002101707B
:103CF0002068012141600DF077FD20680168C90747
:103D00001CBF81685FEAC17112D120680168090790
:103D100044BF81685FEA01710FD443F614404FF449
:103D20000001C4F20100016009F0A2F901B0F0BD88
:103D3000012141600DF058FDE7E70821416045F69B
:103D4000993048F65C14C2F20000C2F2000401216E
:103D50000170207818B113F023FC0020207045F684
:103D6000A034C2F2000420780028D6D048F63515D9
:103D7000C2F20005287890B145F69C36C2F20006E2
:103D800037680DF041FD063080B287421ED9306899
:103D90004FF6FA71084480B20DF042FD18E045F686
:103DA000A925C2F20005287840B145F69C30C2F240
:103DB000000006680DF028FD864207D945F69C30C4
:103DC000C2F2000000680DF02BFD03E00DF024FCB2
:103DD00000202870002020709FE7000000000000F5
:103DE00040F2083241F25973C2F20002CDF2B71329
:103DF000D0F800C000201268A2FB03239A0B4FF6F4
:103E00001843CFF6FF7353435A1C28BF03200133D6
:103E1000DCF8003003D00B408B421346F4D1C0B223
:103E200070470000000000000844704700000000D8
:103E3000704700000000000010B50446283008F06C
:103E4000D3FE58B1E46A4CB1A01C08F059FF18B178
:103E5000A468002CF8D10024204610BD0024204680
:103E600010BD00000000000010B584465CF8303F33
:103E70005BB191F803E0DA7872450BD21A465B68C1
:103E80006BB1DC787445F9D305E00022C1E9012269
:103E9000C1620DE00022C1E90132083303E0C1E94B
:103EA000013200F12C03002A196018BF02F1040C42
:103EB0002830CCF8001008F0E3FE10BD0000000030
:103EC0004A6802F10803002A08BF00F12C038A683F
:103ED0001A608A68131D002A08BF00F13003486881
:103EE000186070470000000000F007004FF0FF3C32
:103EF00080F00703042B28BF0423033838BF0020B9
:103F00000CFA03F399430CFA00F301FA00F022EAE9
:103F1000030108437047000080B543F64800C2F231
:103F20000000006806F060FB80BD0000000000009B
:103F300080B543F64800C2F20000006806F078FA47
:103F400080BD00000000000080B506F069F906F0B1
:103F50005FFA80BD0000000080B506F025FB80BD43
:103F6000B0B5B0F57A7F15D10D4606F01DFB0446BD
:103F700001F0D6FA2046294601F09AF9204601F0D0
:103F80008BF9A8420ED1002C02D4204601F074F91E
:103F90000020B0BD4FF2460106A0C0F6010132225A
:103FA0000EF006FC4FF2460106A0C0F601013F22CA
:103FB0000EF0FEFB66726571203D3D2031303030E1
:103FC0000000000068616E646C6572203D3D202831
:103FD00049525148616E646C65725F74294E56494E
:103FE000435F476574566563746F722869727129FF
:103FF0000000000000000000B0B54EF62254FF2083
:10400000CEF200042070207880F0FF00B0FA80F03B
:10401000C0F1200508F05CF8A84228BF451CFE202E
:10402000A84004F8030CB0BD80B50C3008F0B0FD1A
:10403000002818BF012080BD10B5C18904460C308E
:1040400008F0F2FDE2890021904238BF01210846C4
:1040500010BD0000000000004EF604504FF08051EB
:10406000CEF20000016070474EF604504FF08051D0
:10407000CEF200000160704780B5012000F014F816
:10408000002818BF80BD00F073F800B180BD01A00A
:104090000AF0C6FD536574537973436C6F636B20EC
:1040A0006661696C65640A0070B5B6B043F640019C
:1040B0000546C4F20201012600240A6842F080523B
:1040C0000A60096801F08051009147F20001009AEE
:1040D000C4F200010A6842F440420A60096801F42F
:1040E00040410091009831A8002131963294FFF7A9
:1040F000DBF84FF4A020002D24964FF4800108BF78
:104100004FF480302B910421259002202A902C918D
:10411000D821CDE92D100921CDE92F1024A8FFF7D2
:10412000F3F9F8B9FEF78CFD4FF00004D0B90F2079
:10413000319002200721CDE932044FF4A050349091
:104140004FF48050359031A8FFF7AEF850B94FF4D6
:104150000010009000201F906846FEF7C1FDB0FAE5
:1041600080F04409204636B070BD00000000000019
:10417000B0B5B6B043F640000125C4F202000024F9
:10418000016841F0805101600068002100F080501A
:104190000090009831A831953294FFF785F80220FD
:1041A0002795CDE9240410212891CDE92A0408217E
:1041B0002C91D821CDE92D100921CDE92F1024A86B
:1041C000FFF7A2F9F8B9FEF73BFD4FF00004D0B9B4
:1041D0000F20319002200721CDE932044FF4A05086
:1041E00034904FF48050359031A8FFF75DF850B906
:1041F0004FF40010009000201F906846FEF770FDFD
:10420000B0FA80F04409204636B0B0BD000000008E
:1042100080B582B00A2800F2E280DFE800F00654A0
:1042200040681890A47CB82CCC0043F63000C4F24F
:104230000200016841F001010160006800F0010026
:10424000019001980020C4F2020002B080BD43F644
:104250003000C4F20200016841F010010160006802
:1042600000F01000019000200199C4F2020000F556
:10427000805002B080BD43F63000C4F202000168F5
:1042800041F400710160006800F4007001900020AA
:104290000199C4F2020000F5105002B080BD43F64F
:1042A0003000C4F20200016841F0040101600068BE
:1042B00000F00400019000200199C4F2020000F512
:1042C000006002B080BD43F63000C4F20200016815
:1042D00041F002010160006800F00200019000203E
:1042E0000199C4F2020000F5806002B080BD43F67F
:1042F0003000C4F20200016841F00801016000686A
:1043000000F00800019000200199C4F2020000F5BD
:10431000406002B080BD43F63000C4F20200016884
:1043200041F080010160006800F0800001900020F1
:104330000199C4F2020000F5E05002B080BD43F6DE
:104340003000C4F20200016841F020010160006801
:1043500000F02000019000200199C4F2020000F555
:10436000A05002B080BD43F63000C4F202000168E4
:1043700041F040010160006800F040000190002021
:104380000199C4F2020000F5C05002B080BD43F6AE
:104390003000C4F20200016841F4807101600068DD
:1043A00000F48070019000200199C4F2020000F531
:1043B000005002B080BD43F63000C4F20200016834
:1043C00041F480610160006800F480600190002089
:1043D0000199C4F2020000F5205002B080BD01A096
:1043E0000AF01EFC50696E6D6170206572726F720A
:1043F0003A2077726F6E6720706F7274206E756DE1
:104400006265722E00000000C0064FF0200058BF09
:10441000602070470000000043F60400C4F2020070
:10442000416801F00C0242F20041082AC0F2F40196
:1044300006D0042A1ED141F20021C0F27A0119E00F
:104440000268D0F800C0520241F200220368C0F2B4
:104450007A0258BF0A46C3F3881103680CF03F0C78
:10446000B2FBFCF2C3F301435143022202EB4302CD
:10447000B1FBF2F140F20832C2F2000211604DF6D7
:1044800018014068C0F60101C0F30310085C116810
:1044900021FA00F0106070474EF68850CEF200000E
:1044A000016841F47001016040F20001C0F60001B2
:1044B00040F8801C7047000010B540F6FF3E40F207
:1044C000004CC4F2000E03687045C4F2010C0FDC0E
:1044D000B0F1804F14D040F20042C4F2000290428A
:1044E0000ED040F60002C4F20002904208D00BE069
:1044F00040F60042C4F20002904218BF604568D105
:1045000023F070024B68134341F6FF72C4F20002BD
:1045100090420DDC70451FDCB0F1804F41D040F27D
:104520000042C4F2000290423BD040F6000221E07B
:1045300043F6FF72C4F20102904220DC42F2000214
:10454000C4F2000290422CD00022C4F20102904238
:1045500027D0604525D028E040F60042C4F2000292
:1045600090421ED041F60002C4F20002904218D0E0
:1045700041F60042C4F20002904212D015E044F22B
:104580000002C4F2010290420BD044F60002C4F2D1
:104590000102904205D044F20042C4F2010290426E
:1045A00003D123F44072CB68134323F080024B699C
:1045B000D1F800E01A438C68026040F48062C46263
:1045C000C0F828E0624504BF096901630121416127
:1045D00010BD0022C4F2010290423FF491AF93E774
:1045E00001F01F01012303FA01FC036A23EA0C0313
:1045F000036202FA01F1026A11430162704700008E
:10460000704700000000000080B5930706D4D20771
:1046100000F1280015D108F09BFA80BD836A02F0F2
:10462000010203EA010040EA020C8842184618BF62
:104630000020002A08BF1846BCF1000F08BF6046E2
:1046400080BD08F05DFA80BD80B5283008F04CFBD5
:1046500080BD00000000000010B540F2C03CC2F276
:10466000000CDCF84420002A134618BF01231AD09E
:1046700014698C4202D94FF0000E0BE09646D268C6
:10468000002AA1EB0401134618BF01230DD01469C1
:10469000A142F3D2C0E902E201614BB1136990601B
:1046A000591A116104E04FF0000EC0E902E2016105
:1046B0000EF10C01BEF1000F08BF0CF144010860BF
:1046C00010BD000000000000C16800291CBF826806
:1046D0008A6040F2C031C068C2F20001486470478D
:1046E000416ACA070CD18A0715D44A071ED40A07A3
:1046F00027D4CA0630D48A0639D44A0655D541E0B3
:104700000268D0F828C0536823F4003343EA0C034E
:1047100053608A07E9D50268D0F82CC0536823F4A7
:10472000803343EA0C0353604A07E0D50268D0F8AF
:1047300030C0536823F4802343EA0C0353600A0714
:10474000D7D50268D0F834C0536823F4004343EA55
:104750000C035360CA06CED50268D0F838C09368FF
:1047600023F4805343EA0C0393608A06C5D502689C
:10477000D0F83CC0936823F4005343EA0C039360E1
:104780004A0612D50268D0F840C05368BCF5801FB5
:1047900023F4801343EA0C03536006D1536823F4D7
:1047A000C00C436C43EA0C035360090658BF7047C2
:1047B0000168806C4A6822F4002210434860704708
:1047C000B0B582B004460020E067FEF72DF92168FD
:1047D0000546096809070AD54FF4001100226FF059
:1047E0007E40009020462B4600F03AF970B92068D0
:1047F000006840070DD54FF4800100226FF07E4025
:10480000009020462B4600F02BF910B1032002B097
:10481000B0BD20206067A067002084F8700002B05F
:10482000B0BD000000000000B0B50546016880681A
:1048300046F6F314D5E9032318436B690343D5F80F
:104840001CC00868CEF6FF7443EA0C0320401843EE
:104850000860486847F2FF7320F44050C4F2000338
:1048600010434860A86999422A6A40EA02008A68AF
:1048700022F4306240EA02004FF01002886018DC37
:1048800044F6FF30C4F2000081422BDC44F20040C9
:10489000C4F2000081424BD044F60000C4F2000094
:1048A00081425ED143F69000C4F202000068010923
:1048B00052E040F6FF70C4F20100814225DC47F669
:1048C0000000C4F20000814239D047F60040C4F233
:1048D0000000814245D143F69000C4F20200006816
:1048E000810B39E044F60040C4F2000081422DD033
:1048F00045F20000C4F20000814232D143F690003C
:10490000C4F202000068010A26E041F20040C4F24D
:104910000100814252D041F20000C4F20100814204
:104920001FD143F6900049A2C4F20200016814E0CE
:1049300043F69000C4F20200006881080CE043F6E0
:104940009000C4F202000068010B05E043F69000FD
:10495000C4F202000068810938A201F0030052F895
:104960002020BCF5004F14D1082A4FF001004FF071
:1049700000013CD844F60003C0F2E813DFE802F07F
:10498000052630372A3737372E00FEF75DFD430006
:1049900026E0082A4FF001004FF0000344D842F20D
:1049A0000041C0F2F401DFE802F0052E383F323F4B
:1049B0003F3F3600FEF748FD01462EE043F69000EB
:1049C00022A2C4F202000068810AC6E7FEF750FD89
:1049D000430005E0FEF760FD430001E04FF4803343
:1049E000686803EB5001B1FBF0F081B200201029A0
:1049F00007D3C1F342022B6821F00F011144D960A3
:104A000018E0012016E0FEF733FD014605E0FEF751
:104A100043FD014601E04FF40041686801EB50019D
:104A2000B1FBF0F083B20020102B02D32968CB60D9
:104A300000E001200021C5E91811B0BD0000000010
:104A40000400000002000000080000000100000057
:104A50000400000002000000080000000000000048
:104A60002DE9F04381B004460068C0690840401A4F
:104A7000B0FA80F04009904234D1DDF820800D4634
:104A80001646994608F1010709E000BF2068C06991
:104A90002840401BB0FA80F04009B04222D1002FDC
:104AA000F4D0FDF7C1FF2168B8F1000F0A681DD0EE
:104AB000A0EB0900404519D8500744BFC8695FEA18
:104AC0000050E3D54FF400600862086820F4D0700D
:104AD0000860886820F00100886020206067A06777
:104AE000E0670DE0002001B0BDE8F08322F4D07053
:104AF0000860886820F00100886020206067A06757
:104B0000002084F87000032001B0BDE8F0830000AD
:104B100070B588B003AD14460C9A0093012301923E
:104B20002A4600F009FF06462046294602F0C4FC4A
:104B300006EAE67008B070BD2DE9F04186B002903B
:104B400043F20070C2F20000DDF83880DDE90F4763
:104B500003910D9D04920C9E059306F031FE06F024
:104B6000C3FF80B143F20070C2F2000006F04CFEB9
:104B700031462A464346CDE9004706F081FF002032
:104B800006B0BDE8F08102A831462A4643460094AB
:104B9000019706F09DFF06B0BDE8F081000000001F
:104BA00080B500F001F880BD80B50168096F8847C5
:104BB00080BD0000000000000020704700000000E1
:104BC00000687047000000000068704700000000A7
:104BD0002DE9F04389B0DDE910CE0DF15008179CA6
:104BE00008940024CDE900CE0DF1100CDDE91295FA
:104BF00098E8C001CDE902498CE8E00100F0B4F882
:104C000009B0BDE8F08300000160704700000000BB
:104C100001607047000000004FF220414FF4004255
:104C2000C1F6F07109680280E12282700A0CC2703C
:104C30000A0A0271417170472DE9F04182B01127D3
:104C40001E46A3FB073788464DF640211446002F29
:104C5000C0F6010118BF0127002F074618BF4FF00B
:104C6000FF33184607F0CCF9F0B105463346DDE9CD
:104C70000810CDE90010384641462A4600F05CFE97
:104C8000804601280CDB2F46464600BF20463946A9
:104C900002F012FC013E07F1110704F11804F5D1EE
:104CA000284607F059F903E04FF24148CFF6FF7864
:104CB000404602B0BDE8F08102460120107001209C
:104CC0000968C2F801107047B0B50A78054600249B
:104CD00062B1022A06D0012A0AD1D1F80100286067
:104CE0000120B0BD481C01F0EBFB18B12C60012481
:104CF0002046B0BD0020B0BD10B5044643F2A870F8
:104D0000C2F2000006F0A8FD05F052FF43F25C720B
:104D10000021C2F2000202E00131052907D052F859
:104D200021000028F8D00368A342F5D100E000205C
:104D30004FF24544CFF6FF7458B190F85B1002294A
:104D400007D0022180F85B1014300021002405F008
:104D50002FF843F2A870C2F2000006F07DFD05F0C6
:104D60004BFF204610BD00002DE9F04F93B00446E4
:104D70001D98129043F2A8704FF2414BC2F200000E
:104D80000F460F9210931C991191CFF6FF7B06F0FE
:104D900063FD05F00DFF002C0BF1040A57D03FB165
:104DA0003846FCF73BF88046B8F1FF0F05DD46E0DA
:104DB0004FF00008B8F1FF0F41DCB8F1000F3ED012
:104DC0004DF64021AA20C0F60101249E1E9D07F049
:104DD00017F98146384631464A4600F02DFD824695
:104DE000CDB3BAF1010F55DB1824AAFB0401002949
:104DF00018BF0121083028BF4FF0FF3000294DF6C1
:104E00004021C0F6010118BF4FF0FF3007F0F8F85D
:104E1000002800F0CA80C0E9004ABAF1000F00F192
:104E2000080400F0C3800AEB4A00C500204600BF1A
:104E300002F072FB183D00F11800F9D1B6E043F220
:104E4000A870C2F2000006F007FD05F0D5FE50463E
:104E500013B0BDE8F08FBAF1010F1BDB09AC0022E3
:104E6000204649464FF0000A02F03AFB43F2A87090
:104E7000C2F2000006F0F0FC05F0BEFE0FA8012112
:104E8000224606F0CDFE484607F066F8204602F0BE
:104E90004FFBDCE7B9F1000F02D0484607F05CF8A1
:104EA00043F25C790025C2F2000900BF59F82500E1
:104EB00020B10135052DF9D14FF0FF35B5F1FF3F98
:104EC00040F3AD804DF640215C20C0F60101B246B2
:104ED00007F0C6F8002800F0E180064606F054F915
:104EE000002E00F0DF804DF6402108F10100C0F6F1
:104EF000010107F085F80028F06000F0DD8048F639
:104F000094083946C0F20108FBF764FF40F2002123
:104F1000ABF10C00C6E90104229830631E9870635F
:104F200086F838A00020C6E90F007064C0F20A01BC
:104F3000C6F856102399A6F85400219AC6E91380A2
:104F400031610F9971611099B1611199F1611299F3
:104F500031621F9971622099B16240F2A431C2F2AC
:104F60000001F262A6F85A000A68531CB2F5004F1D
:104F70000B604FF00001A8BF0122326004E000BFC7
:104F800001310130052854D059F82020002AF8D0EA
:104F9000F36B002BF4D1D36B002BF1D09768A742B1
:104FA000EED1F363126C3264EAE70024BAF1010F28
:104FB0000CDB27464E4655463846314602F07CFA11
:104FC000013D06F1110607F11807F5D143F2A8706B
:104FD000C2F2000006F040FC05F00EFE0FA851469C
:104FE000224606F01DFEB9F1000F02D0484606F039
:104FF000B3FF002C3FF42BAF54F8040CA4F10806C7
:1050000048B100EB4000183CC50000BF601902F039
:105010008FFA183DFAD1304606F09EFF17E743F2AB
:10502000A870C2F2000006F017FC05F0E5FDDA46B4
:105030000DE743F298744FF4FA72C2F2000401FBD8
:10504000028149F825602078F164002843D146F2B6
:10505000110105A8C0F6000105F0DAF805AB6427D8
:105060000FCBCDE9007002A80EC01FAB0FCBFFF72E
:1050700063FD70B3F06808B106F06EFF304606F0CD
:105080006FFF002049F8250043F2A870C2F200002B
:1050900006F0E2FB05F0B0FDDA46D8E60026002E69
:1050A0007FF421AF43F2A870C2F2000006F0D4FBF7
:1050B00005F0A2FDDA46CAE6304606F051FF43F29B
:1050C000A870C2F2000006F0C7FB05F095FDDA46B5
:1050D000BDE60120207001F0D7F843F2A870C2F2BB
:1050E000000006F0B9FB05F087FDD6F800A0AEE69B
:1050F00010B5044604F0CCFB00B110BD204604F00E
:10510000CBFB002818BF10BD00F052F843F64C004E
:10511000C2F2000010BD000080B50CF0DDF80028E0
:1051200018BF012080BD000001684A1C0260087899
:105130007047000000000000B0B50446FFF7F4FF20
:1051400005462046FFF7F0FF40EA0520B0BD00000D
:1051500080B548F63C10C2F200000068002808BF85
:1051600080BD4FF0FF3110F027F980BD0000000036
:1051700080B548F63C10C2F200000068002808BF65
:1051800080BD4FF0FF3110F017F980BD0000000026
:1051900080B548F63C10C2F200000068002808BF45
:1051A00080BD4FF0FF3110F007F980BD0000000016
:1051B00080B543F2E060C2F200000078BFF35F8F79
:1051C000C00700D080BD43F2E060C2F2000006F0EC
:1051D000EFFF002808BF80BD43F64C004EF284610B
:1051E000C2F20000C0F601014FF4165201F0D4FCE7
:1051F00043F2E060C2F2000007F00EF880BD00004C
:105200000268531C0360117070470000000000002A
:1052100070B50D46114614460646FFF7F1FF30689B
:1052200029462246FBF719FE30682044306070BDE5
:10523000B0B50C46090A0546FFF7E2FFE1B2284681
:10524000FFF7DEFFB0BD0000B0B50446FFF76CFF0E
:1052500005462046FFF768FF000440EA0565204642
:10526000FFF762FF45EA00252046FFF75DFF28446F
:10527000B0BD000000000000002848BF704700F0EB
:105280001F01012202FA01F14EF200124009CEF292
:10529000000242F8201070474EF60851CEF200018D
:1052A000096801EB8000006C7047000000000000FE
:1052B0004EF60852CEF20002126802EB8000016442
:1052C000BFF34F8F7047000080B548F63C10C2F224
:1052D00000000068002808BF80BD10F0B9F880BD4C
:1052E00080B548F63C10C2F200000068002808BFF4
:1052F00080BD10F0ADF880BD80B548F63C10C2F21C
:1053000000000068002808BF80BD10F0A1F880BD33
:105310002DE9F04389B0E8460E4607462421404671
:105320001C461546DDF84090FBF7B7FE2046009777
:10533000FBF7B7F8CDF808902946CDE904044420DE
:105340000390282006903046424610F06DFF09B0C9
:10535000BDE8F0830000000080B50FF0BDFF45F20E
:10536000F1510022C0F6000104F0EEFF10F1020F2F
:1053700002D20FF085FF80BD4FF2460102A0C0F6B9
:1053800001018B220DF014FA7469636B735F736C07
:10539000657074203C2072746F733A3A4B65726E7C
:1053A000656C3A3A776169745F666F725F75333224
:1053B0005F6D6178000000002DE9F04F83B002AF0F
:1053C000029038469A4601928B46FFF7B5FE044696
:1053D0003846FFF7B1FE06463846FFF7ADFE0546F4
:1053E0003846FFF7A9FE81463846FFF7A5FE384646
:1053F000FFF7A2FE5C454FF0FF3B27D106F4784053
:10540000B0F5004F22D1300702D04FF0000B1DE065
:10541000A5B1002402AF03E0029951FA80F0029096
:105420003846FFF781FE0028F6D13846FFF784FEA4
:105430003846FFF781FE0134AC42F1D10C984FF0B1
:10544000000B002818BFB9F1000F03D1584603B074
:10545000BDE8F08F4FF0000802AD4FF0000B0BE0FD
:105460000AF1110A0BF1010B0C9883453CBF08F1BE
:105470000108C845EAD200BF2846FFF755FE50B1E3
:1054800010F0C00F04D1C0B2029908440290F3E7B3
:105490002846FFF749FE2846FFF74EFE06462846F7
:1054A000FFF74AFE04462846FFF7CEFE0746284689
:1054B000FFF742FEB8F1000F06D16FF000418F42B6
:1054C00028BF0F4601990F60012E03D1012C08BFA0
:1054D000042809D01C2E03D1012C08BF102811D09C
:1054E000029908440290BFE754460026012004F8C0
:1054F000010B00BF2846FFF717FEA0550136042E0A
:10550000F8D1ADE754460026022004F8010B00BF95
:105510002846FFF709FEA0550136102EF8D19FE767
:105520004EF6145200F00F01CEF20002B0F1FF3F30
:10553000114400F16042C8BF02F56441F0200870D8
:105540007047000000000000B0B50C464542FAF775
:105550005DFF056040F26430C2F20000002140F8B7
:105560002410B0BD00000000810706D4410706D416
:105570000107092202EAE17102E0022100E00121B3
:1055800010F00C0F00F0040018BF01F5007141EAA3
:10559000002070470000000010B543F27070C2F2A6
:1055A000000006F059F905F003FB40F264300324D3
:1055B000C2F2000050F8241019B10134102CF9D1B6
:1055C0001024102C06D3FAF721FF182101604FF0A8
:1055D000FF3403E04FF0FF3140F8241043F27070C5
:1055E000C2F2000006F038F905F006FB204610BDB7
:1055F00040F2C030C2F20000807A002818BF0120BB
:1056000070470000000000002DE9F04782B001ADB6
:1056100081460190284698461646FFF709FE4FF44A
:1056200080712846FFF704FE012128464FF0010A49
:10563000FFF7FEFD00212846FFF7FAFD002128466E
:10564000FFF7F6FD00212846FFF7F2FD307898B10C
:1056500015A501AC30462946FBF760FB07463146ED
:10566000C2B22046FFF7D4FDF05D2E2808BF0137F7
:10567000F05D3E440028EDD101AC00212046FFF74B
:10568000BFFDB8F1020F204608BF4FF01C0A51467B
:10569000FFF7CEFD01212046FFF7CAFD0198A0EBE0
:1056A000090002B0BDE8F0872E00000000000000F5
:1056B0002DE9F04F85B0002A00F0A6800F4609784A
:1056C000924600229846814600F0B6F8002800F085
:1056D0009B8043F23470C2F2000006F0BDF805F082
:1056E00067FA43F29C7B6FF000404FF0FF350021DA
:1056F000C2F2000B4FF0FF325BF82130E3B1D3E987
:105700000464961B70EB0406A4BFD3E904200D4685
:1057100001310329F0D1B5F1FF3F11DD5BF8250020
:10572000C8B1406808B106F01BFC5BF825000068B2
:10573000F8B106F015FC1CE00D46B5F1FF3FEDDCBD
:1057400043F23470C2F2000006F086F805F054FA15
:1057500005B0BDE8F08F4DF640212020C0F60101D4
:1057600006F07EFC10B105F007FD00E000204BF8CC
:1057700025005BF82540002C3ED04DF6402108EB7B
:105780000810C0F6010106F03BFC5BF82510B8F1EB
:10579000000FCDF8048008600FD001984FF000088A
:1057A00000EB0016206807EB080140441122FBF7CC
:1057B00054FB08F111084645F4D10198207648467B
:1057C000FBF72CFB4DF640210130C0F6010106F03D
:1057D00017FC49466060FBF7FDFA02A805F060FA85
:1057E0005BF825004FF47A73DDE90212C0E9041278
:1057F000EAFB0312C0E9021243F23470C2F2000065
:1058000006F02AF805F0F8F905B0BDE8F08F0000C1
:10581000B0B588B00D46014603A806F055F8DDE99D
:1058200003019DF81C40DDE90523CDE900450FF09B
:10583000A7FB08B0B0BD00002DE9F04F87B00646C9
:1058400043F23470C2F2000014460D4606F004F82C
:1058500005F0AEF94FF2424743F29C7ACFF6FF775C
:10586000C2F2000A4FF000080394A4F11100009066
:10587000CDE9016508E000BF00204AF8280008F1E2
:105880000108B8F1030F48D05AF828000028F6D0D4
:1058900004A805F005FA5AF828B0DDE90494DBE91C
:1058A0000201B0EB090071EB04000BDADBF8040035
:1058B00008B106F055FB5AF828000028DCD006F0A5
:1058C0004FFBD9E725B1DBF800000078A842D6D11C
:1058D000DBF804003146FBF733FC0028CFD10398F6
:1058E000B0B19BF81800002790B16FF01005009E32
:1058F000DBF8000011362844112200F11101304676
:10590000FBF7ABFA9BF81800013711358742EFD34C
:10591000CBE90494DDE90165B1E743F23470C2F2EA
:10592000000005F099FF05F067F9384607B0BDE8BB
:10593000F08F0000000000002DE9F04FB1B00E46DE
:1059400098469246834619B13046FBF767FA00E065
:1059500000204FF24147FF28CFF6FF7707F10405FB
:1059600000F3EA80002800F0E7804DF64021AA20ED
:10597000C0F601013B9C06F043FB0546304621463C
:105980002A46FFF759FF01281ADB404538BF8046F9
:10599000B8F1000F0ED0AAF11106A5F111070024ED
:1059A00011361137112230463946FBF756FA0134C9
:1059B0004445F5D3BDB3284606F0CEFA4546BBE0D4
:1059C00015B1284606F0C8FA0DA805F09DFE594607
:1059D00001F06AFE0546002840F0AB800DA842F2B7
:1059E00010713A9D01F02CFE45B10DA841F65831D9
:1059F0000922062300932B4601F0D6FD4FF40070D8
:105A0000FAF74FFD049080B16FF43C650DF1180971
:105A100000208DF833000A218DF832108DF8310006
:105A20000120039012E0454686E03D4681E0059A5C
:105A30003046E3B25146FFF73BFE25463B9C00BF94
:105A40000627484601F074FD062F69D0484601F04C
:105A500063FD3A98019058460DF133010DF1320281
:105A60000DF13103CDF8009000F06AF80028E7D17D
:105A700024B1484605F024FFA04233D1484605F042
:105A80001FFF049F0346012138463246FFF7BCFD45
:105A900003460DA849463A4602F03AFAB0F1FF3FF4
:105AA00020DD9DF832004FF400739DF8311000287E
:105AB00001F101018DF831101CBF01388DF8320061
:105AC00000210DA8049A02F0B7FA4FF24741CFF631
:105AD000FF7188420FD10399080603D00139039161
